:020000040800F2
:1000000080060020CD040008F9010008FB0100086B
:10001000FF010008030200080702000800000000BA
:100020000000000000000000000000000B020008BB
:100030000D020008000000000F0200081102000875
:10004000E7040008E7040008E7040008E7040008E4
:10005000E7040008E7040008E7040008E7040008D4
:10006000E7040008E7040008E7040008E7040008C4
:10007000E7040008E7040008E7040008E7040008B4
:10008000E7040008E7040008E7040008E7040008A4
:10009000E7040008E7040008E7040008E704000894
:1000A000E7040008E7040008E7040008E704000884
:1000B000E7040008E7040008E7040008E704000874
:1000C000E7040008E7040008E7040008E704000864
:1000D000E7040008E7040008E7040008E704000854
:1000E000E7040008E7040008E7040008E704000844
:1000F000E7040008E7040008E7040008E704000834
:10010000E7040008E7040008E7040008E704000823
:10011000E7040008E7040008E7040008E704000813
:10012000E7040008E7040008E7040008E704000803
:1001300000F002F800F03AF80AA090E8000C8244BF
:100140008344AAF10107DA4501D100F02FF8AFF29C
:10015000090EBAE80F0013F0010F18BFFB1A43F0A5
:1001600001031847F804000018050000103A24BFE6
:1001700078C878C1FAD8520724BF30C830C144BF0C
:1001800004680C607047000000230024002500264E
:10019000103A28BF78C1FBD8520728BF30C148BFEA
:1001A0000B6070471FB51FBD10B510BD00F01FFAE2
:1001B0001146FFF7F7FF00F009F800F03DFA03B42D
:1001C000FFF7F2FF03BC00F041FA000000244FF4F7
:1001D000E06000F00DF900F011F909E0002405E0FD
:1001E000604240B203490870601CC4B2C82CF7DBFF
:1001F000F4E7000000000020704700BFFEE700BFEA
:10020000FEE700BFFEE700BFFEE77047704770479C
:10021000704700000CB50020019000906B4800680A
:1002200040F480306949086000BF6848006800F405
:10023000003000900198401C0190009818B9019876
:10024000B0F5A06FF1D16148006810F4003F02D012
:100250000120009001E0002000900098012842D188
:100260005B48006840F01000594908600846006883
:1002700020F0030008600846006840F002000860B3
:1002800052484068514948600846406848600846FE
:10029000406840F4806048600846406820F47C1064
:1002A00048600846406840F4E81048600846006826
:1002B00040F08070086000BF4448006810F0007F84
:1002C000FAD04248406820F00300404948600846A0
:1002D000406840F00200486000BF3C48406800F0C1
:1002E0000C000828F9D10CBD10B5FFF793FF10BD25
:1002F00010B53648006840F00100344908600846EF
:10030000406834490840314948600846006832492D
:1003100008402E4908600846006820F480200860E4
:100320000846406820F4FE0048604FF41F008860D3
:10033000FFF7DAFF4FF000602849086010BD10B5E4
:10034000002100200022214B5B6803F00C0121B149
:10035000042906D0082928D107E0214B214C23602D
:1003600027E01F4B1F4C236023E0184B5B6803F40E
:100370007010164B5B6803F48032022303EB90404D
:1003800022B9194B4343174C23600DE00F4B5B68B8
:1003900013F4003F04D0144B4343124C236003E09A
:1003A0000F4B43430F4C236003E00D4B0D4C236078
:1003B00000BF00BF054B5B68C3F303130B4CE15C4C
:1003C000084B1B68CB40074C236010BD0010024057
:1003D000002002400000FFF8FFFFF6FE08ED00E0FD
:1003E00000127A000400002000093D0008000020EF
:1003F00010B50446204600F089F810BD10B56FF026
:10040000040000F0D3F82D4800682D49B0FBF1F04E
:100410002C4908700846007800EB4001C1EBC01081
:100420004FF6FF7101EAC0002749088010BD014660
:10043000254A12884A434FF0E0235A6100229A610C
:100440001A46126942F001021A6100BF4FF0E02221
:10045000106910F0010F02D010F4803FF6D04FF079
:10046000E022126922F001024FF0E0231A6100221B
:100470009A6170470146134A12784A434FF0E023CD
:100480005A6100229A611A46126942F001021A6109
:1004900000BF4FF0E022106910F0010F02D010F4FD
:1004A000803FF6D04FF0E022126922F001024FF0B7
:1004B000E0231A6100229A617047000004000020C6
:1004C00000127A00180000201A0000200948804716
:1004D00009480047FEE7FEE7FEE7FEE7FEE7FEE726
:1004E000FEE7FEE7FEE7FEE704480549054A064B3E
:1004F00070470000F1020008310100088000002070
:100500008006002080020020800200203149014343
:10051000314A1160704770B5002100230F22C47862
:100520000CB32D4C246804F4E064C4F5E064210AA3
:10053000C1F10403CA40447804FA03F184781440FA
:1005400021430901254C0678A155047804F01F05C4
:100550000124AC4005786D114FF0E02606EB8505CF
:10056000C5F8004109E0047804F01F050124AC40FF
:100570001B4D0678761145F8264070BD194A0A4091
:100580000243154B1B1F1A60704739B1124A121DE6
:1005900012680243104B1B1D1A6006E00E4A121D22
:1005A000126882430C4B1B1D1A607047042808D147
:1005B0004FF0E021096941F004014FF0E0221161A0
:1005C00007E04FF0E021096921F004014FF0E0223B
:1005D000116170470000FA050CED00E000E400E056
:1005E00080E100E080FFFF1F70477047704775464D
:1005F00000F028F8AE4605006946534620F0070093
:10060000854618B020B5FFF76FFFBDE820404FF0DA
:1006100000064FF000074FF000084FF0000B21F0EC
:100620000701AC46ACE8C009ACE8C009ACE8C009B9
:10063000ACE8C0098D4670470446AFF30080204601
:10064000FFF7BDFD004870471C000020014918203D
:10065000ABBEFEE726000200704700007C060008E3
:10066000000000201C0000006C0100089806000833
:100670001C00002064060000880100080000000043
:1006800000A24A0400000000000000000102030470
:08069000060708090000000044
:0400000508000131BD
:00000001FF
